{
	"nathaniel/team.sol": {
		"Team": {
			"abi": [
				{
					"inputs": [],
					"name": "getTeamPlayers",
					"outputs": [
						{
							"internalType": "address[16]",
							"name": "",
							"type": "address[16]"
						}
					],
					"stateMutability": "view",
					"type": "function"
				},
				{
					"inputs": [
						{
							"internalType": "uint256",
							"name": "playerId",
							"type": "uint256"
						}
					],
					"name": "selectJerseyNumber",
					"outputs": [
						{
							"internalType": "uint256",
							"name": "",
							"type": "uint256"
						}
					],
					"stateMutability": "nonpayable",
					"type": "function"
				}
			],
			"devdoc": {
				"kind": "dev",
				"methods": {},
				"version": 1
			},
			"evm": {
				"assembly": "    /* \"nathaniel/team.sol\":73:421  contract Team {... */\n  mstore(0x40, 0x80)\n  callvalue\n  dup1\n  iszero\n  tag_1\n  jumpi\n  0x00\n  dup1\n  revert\ntag_1:\n  pop\n  dataSize(sub_0)\n  dup1\n  dataOffset(sub_0)\n  0x00\n  codecopy\n  0x00\n  return\nstop\n\nsub_0: assembly {\n        /* \"nathaniel/team.sol\":73:421  contract Team {... */\n      mstore(0x40, 0x80)\n      callvalue\n      dup1\n      iszero\n      tag_1\n      jumpi\n      0x00\n      dup1\n      revert\n    tag_1:\n      pop\n      jumpi(tag_2, lt(calldatasize, 0x04))\n      shr(0xe0, calldataload(0x00))\n      dup1\n      0x9697f8ab\n      eq\n      tag_3\n      jumpi\n      dup1\n      0xa04fa049\n      eq\n      tag_4\n      jumpi\n    tag_2:\n      0x00\n      dup1\n      revert\n        /* \"nathaniel/team.sol\":224:418  function selectJerseyNumber(uint256 playerId) public returns (uint256) {... */\n    tag_3:\n      tag_5\n      0x04\n      dup1\n      calldatasize\n      sub\n      dup2\n      add\n      swap1\n      tag_6\n      swap2\n      swap1\n      tag_7\n      jump\t// in\n    tag_6:\n      tag_8\n      jump\t// in\n    tag_5:\n      mload(0x40)\n      tag_9\n      swap2\n      swap1\n      tag_10\n      jump\t// in\n    tag_9:\n      mload(0x40)\n      dup1\n      swap2\n      sub\n      swap1\n      return\n        /* \"nathaniel/team.sol\":119:216  function getTeamPlayers() public view returns (address[16] memory) {... */\n    tag_4:\n      tag_11\n      tag_12\n      jump\t// in\n    tag_11:\n      mload(0x40)\n      tag_13\n      swap2\n      swap1\n      tag_14\n      jump\t// in\n    tag_13:\n      mload(0x40)\n      dup1\n      swap2\n      sub\n      swap1\n      return\n        /* \"nathaniel/team.sol\":224:418  function selectJerseyNumber(uint256 playerId) public returns (uint256) {... */\n    tag_8:\n        /* \"nathaniel/team.sol\":286:293  uint256 */\n      0x00\n        /* \"nathaniel/team.sol\":326:327  0 */\n      dup1\n        /* \"nathaniel/team.sol\":314:322  playerId */\n      dup3\n        /* \"nathaniel/team.sol\":314:327  playerId >= 0 */\n      lt\n      iszero\n        /* \"nathaniel/team.sol\":314:345  playerId >= 0 && playerId <= 15 */\n      dup1\n      iszero\n      tag_16\n      jumpi\n      pop\n        /* \"nathaniel/team.sol\":343:345  15 */\n      0x0f\n        /* \"nathaniel/team.sol\":331:339  playerId */\n      dup3\n        /* \"nathaniel/team.sol\":331:345  playerId <= 15 */\n      gt\n      iszero\n        /* \"nathaniel/team.sol\":314:345  playerId >= 0 && playerId <= 15 */\n    tag_16:\n        /* \"nathaniel/team.sol\":306:346  require(playerId >= 0 && playerId <= 15) */\n      tag_17\n      jumpi\n      0x00\n      dup1\n      revert\n    tag_17:\n        /* \"nathaniel/team.sol\":374:384  msg.sender */\n      caller\n        /* \"nathaniel/team.sol\":357:361  team */\n      0x00\n        /* \"nathaniel/team.sol\":362:370  playerId */\n      dup4\n        /* \"nathaniel/team.sol\":357:371  team[playerId] */\n      0x10\n      dup2\n      lt\n      tag_18\n      jumpi\n      tag_19\n      tag_20\n      jump\t// in\n    tag_19:\n    tag_18:\n      add\n      0x00\n        /* \"nathaniel/team.sol\":357:384  team[playerId] = msg.sender */\n      0x0100\n      exp\n      dup2\n      sload\n      dup2\n      0xffffffffffffffffffffffffffffffffffffffff\n      mul\n      not\n      and\n      swap1\n      dup4\n      0xffffffffffffffffffffffffffffffffffffffff\n      and\n      mul\n      or\n      swap1\n      sstore\n      pop\n        /* \"nathaniel/team.sol\":402:410  playerId */\n      dup2\n        /* \"nathaniel/team.sol\":395:410  return playerId */\n      swap1\n      pop\n        /* \"nathaniel/team.sol\":224:418  function selectJerseyNumber(uint256 playerId) public returns (uint256) {... */\n      swap2\n      swap1\n      pop\n      jump\t// out\n        /* \"nathaniel/team.sol\":119:216  function getTeamPlayers() public view returns (address[16] memory) {... */\n    tag_12:\n        /* \"nathaniel/team.sol\":166:184  address[16] memory */\n      tag_22\n      tag_23\n      jump\t// in\n    tag_22:\n        /* \"nathaniel/team.sol\":204:208  team */\n      0x00\n        /* \"nathaniel/team.sol\":197:208  return team */\n      0x10\n      dup1\n      0x20\n      mul\n      mload(0x40)\n      swap1\n      dup2\n      add\n      0x40\n      mstore\n      dup1\n      swap3\n      swap2\n      swap1\n      dup3\n      0x10\n      dup1\n      iszero\n      tag_25\n      jumpi\n      0x20\n      mul\n      dup3\n      add\n      swap2\n    tag_26:\n      dup2\n      0x00\n      swap1\n      sload\n      swap1\n      0x0100\n      exp\n      swap1\n      div\n      0xffffffffffffffffffffffffffffffffffffffff\n      and\n      0xffffffffffffffffffffffffffffffffffffffff\n      and\n      dup2\n      mstore\n      0x20\n      add\n      swap1\n      0x01\n      add\n      swap1\n      dup1\n      dup4\n      gt\n      tag_26\n      jumpi\n    tag_25:\n      pop\n      pop\n      pop\n      pop\n      pop\n      swap1\n      pop\n        /* \"nathaniel/team.sol\":119:216  function getTeamPlayers() public view returns (address[16] memory) {... */\n      swap1\n      jump\t// out\n    tag_23:\n      mload(0x40)\n      dup1\n      0x0200\n      add\n      0x40\n      mstore\n      dup1\n      0x10\n      swap1\n      0x20\n      dup3\n      mul\n      dup1\n      calldatasize\n      dup4\n      calldatacopy\n      dup1\n      dup3\n      add\n      swap2\n      pop\n      pop\n      swap1\n      pop\n      pop\n      swap1\n      jump\t// out\n        /* \"#utility.yul\":88:205   */\n    tag_28:\n        /* \"#utility.yul\":197:198   */\n      0x00\n        /* \"#utility.yul\":194:195   */\n      dup1\n        /* \"#utility.yul\":187:199   */\n      revert\n        /* \"#utility.yul\":334:411   */\n    tag_30:\n        /* \"#utility.yul\":371:378   */\n      0x00\n        /* \"#utility.yul\":400:405   */\n      dup2\n        /* \"#utility.yul\":389:405   */\n      swap1\n      pop\n        /* \"#utility.yul\":334:411   */\n      swap2\n      swap1\n      pop\n      jump\t// out\n        /* \"#utility.yul\":417:539   */\n    tag_31:\n        /* \"#utility.yul\":490:514   */\n      tag_49\n        /* \"#utility.yul\":508:513   */\n      dup2\n        /* \"#utility.yul\":490:514   */\n      tag_30\n      jump\t// in\n    tag_49:\n        /* \"#utility.yul\":483:488   */\n      dup2\n        /* \"#utility.yul\":480:515   */\n      eq\n        /* \"#utility.yul\":470:533   */\n      tag_50\n      jumpi\n        /* \"#utility.yul\":529:530   */\n      0x00\n        /* \"#utility.yul\":526:527   */\n      dup1\n        /* \"#utility.yul\":519:531   */\n      revert\n        /* \"#utility.yul\":470:533   */\n    tag_50:\n        /* \"#utility.yul\":417:539   */\n      pop\n      jump\t// out\n        /* \"#utility.yul\":545:684   */\n    tag_32:\n        /* \"#utility.yul\":591:596   */\n      0x00\n        /* \"#utility.yul\":629:635   */\n      dup2\n        /* \"#utility.yul\":616:636   */\n      calldataload\n        /* \"#utility.yul\":607:636   */\n      swap1\n      pop\n        /* \"#utility.yul\":645:678   */\n      tag_52\n        /* \"#utility.yul\":672:677   */\n      dup2\n        /* \"#utility.yul\":645:678   */\n      tag_31\n      jump\t// in\n    tag_52:\n        /* \"#utility.yul\":545:684   */\n      swap3\n      swap2\n      pop\n      pop\n      jump\t// out\n        /* \"#utility.yul\":690:1019   */\n    tag_7:\n        /* \"#utility.yul\":749:755   */\n      0x00\n        /* \"#utility.yul\":798:800   */\n      0x20\n        /* \"#utility.yul\":786:795   */\n      dup3\n        /* \"#utility.yul\":777:784   */\n      dup5\n        /* \"#utility.yul\":773:796   */\n      sub\n        /* \"#utility.yul\":769:801   */\n      slt\n        /* \"#utility.yul\":766:885   */\n      iszero\n      tag_54\n      jumpi\n        /* \"#utility.yul\":804:883   */\n      tag_55\n      tag_28\n      jump\t// in\n    tag_55:\n        /* \"#utility.yul\":766:885   */\n    tag_54:\n        /* \"#utility.yul\":924:925   */\n      0x00\n        /* \"#utility.yul\":949:1002   */\n      tag_56\n        /* \"#utility.yul\":994:1001   */\n      dup5\n        /* \"#utility.yul\":985:991   */\n      dup3\n        /* \"#utility.yul\":974:983   */\n      dup6\n        /* \"#utility.yul\":970:992   */\n      add\n        /* \"#utility.yul\":949:1002   */\n      tag_32\n      jump\t// in\n    tag_56:\n        /* \"#utility.yul\":939:1002   */\n      swap2\n      pop\n        /* \"#utility.yul\":895:1012   */\n      pop\n        /* \"#utility.yul\":690:1019   */\n      swap3\n      swap2\n      pop\n      pop\n      jump\t// out\n        /* \"#utility.yul\":1025:1143   */\n    tag_33:\n        /* \"#utility.yul\":1112:1136   */\n      tag_58\n        /* \"#utility.yul\":1130:1135   */\n      dup2\n        /* \"#utility.yul\":1112:1136   */\n      tag_30\n      jump\t// in\n    tag_58:\n        /* \"#utility.yul\":1107:1110   */\n      dup3\n        /* \"#utility.yul\":1100:1137   */\n      mstore\n        /* \"#utility.yul\":1025:1143   */\n      pop\n      pop\n      jump\t// out\n        /* \"#utility.yul\":1149:1371   */\n    tag_10:\n        /* \"#utility.yul\":1242:1246   */\n      0x00\n        /* \"#utility.yul\":1280:1282   */\n      0x20\n        /* \"#utility.yul\":1269:1278   */\n      dup3\n        /* \"#utility.yul\":1265:1283   */\n      add\n        /* \"#utility.yul\":1257:1283   */\n      swap1\n      pop\n        /* \"#utility.yul\":1293:1364   */\n      tag_60\n        /* \"#utility.yul\":1361:1362   */\n      0x00\n        /* \"#utility.yul\":1350:1359   */\n      dup4\n        /* \"#utility.yul\":1346:1363   */\n      add\n        /* \"#utility.yul\":1337:1343   */\n      dup5\n        /* \"#utility.yul\":1293:1364   */\n      tag_33\n      jump\t// in\n    tag_60:\n        /* \"#utility.yul\":1149:1371   */\n      swap3\n      swap2\n      pop\n      pop\n      jump\t// out\n        /* \"#utility.yul\":1377:1482   */\n    tag_34:\n        /* \"#utility.yul\":1443:1449   */\n      0x00\n        /* \"#utility.yul\":1471:1475   */\n      0x10\n        /* \"#utility.yul\":1461:1475   */\n      swap1\n      pop\n        /* \"#utility.yul\":1377:1482   */\n      swap2\n      swap1\n      pop\n      jump\t// out\n        /* \"#utility.yul\":1488:1632   */\n    tag_35:\n        /* \"#utility.yul\":1586:1597   */\n      0x00\n        /* \"#utility.yul\":1623:1626   */\n      dup2\n        /* \"#utility.yul\":1608:1626   */\n      swap1\n      pop\n        /* \"#utility.yul\":1488:1632   */\n      swap3\n      swap2\n      pop\n      pop\n      jump\t// out\n        /* \"#utility.yul\":1638:1737   */\n    tag_36:\n        /* \"#utility.yul\":1704:1708   */\n      0x00\n        /* \"#utility.yul\":1727:1730   */\n      dup2\n        /* \"#utility.yul\":1719:1730   */\n      swap1\n      pop\n        /* \"#utility.yul\":1638:1737   */\n      swap2\n      swap1\n      pop\n      jump\t// out\n        /* \"#utility.yul\":1743:1869   */\n    tag_37:\n        /* \"#utility.yul\":1780:1787   */\n      0x00\n        /* \"#utility.yul\":1820:1862   */\n      0xffffffffffffffffffffffffffffffffffffffff\n        /* \"#utility.yul\":1813:1818   */\n      dup3\n        /* \"#utility.yul\":1809:1863   */\n      and\n        /* \"#utility.yul\":1798:1863   */\n      swap1\n      pop\n        /* \"#utility.yul\":1743:1869   */\n      swap2\n      swap1\n      pop\n      jump\t// out\n        /* \"#utility.yul\":1875:1971   */\n    tag_38:\n        /* \"#utility.yul\":1912:1919   */\n      0x00\n        /* \"#utility.yul\":1941:1965   */\n      tag_66\n        /* \"#utility.yul\":1959:1964   */\n      dup3\n        /* \"#utility.yul\":1941:1965   */\n      tag_37\n      jump\t// in\n    tag_66:\n        /* \"#utility.yul\":1930:1965   */\n      swap1\n      pop\n        /* \"#utility.yul\":1875:1971   */\n      swap2\n      swap1\n      pop\n      jump\t// out\n        /* \"#utility.yul\":1977:2085   */\n    tag_39:\n        /* \"#utility.yul\":2054:2078   */\n      tag_68\n        /* \"#utility.yul\":2072:2077   */\n      dup2\n        /* \"#utility.yul\":2054:2078   */\n      tag_38\n      jump\t// in\n    tag_68:\n        /* \"#utility.yul\":2049:2052   */\n      dup3\n        /* \"#utility.yul\":2042:2079   */\n      mstore\n        /* \"#utility.yul\":1977:2085   */\n      pop\n      pop\n      jump\t// out\n        /* \"#utility.yul\":2091:2270   */\n    tag_40:\n        /* \"#utility.yul\":2160:2170   */\n      0x00\n        /* \"#utility.yul\":2181:2227   */\n      tag_70\n        /* \"#utility.yul\":2223:2226   */\n      dup4\n        /* \"#utility.yul\":2215:2221   */\n      dup4\n        /* \"#utility.yul\":2181:2227   */\n      tag_39\n      jump\t// in\n    tag_70:\n        /* \"#utility.yul\":2259:2263   */\n      0x20\n        /* \"#utility.yul\":2254:2257   */\n      dup4\n        /* \"#utility.yul\":2250:2264   */\n      add\n        /* \"#utility.yul\":2236:2264   */\n      swap1\n      pop\n        /* \"#utility.yul\":2091:2270   */\n      swap3\n      swap2\n      pop\n      pop\n      jump\t// out\n        /* \"#utility.yul\":2276:2388   */\n    tag_41:\n        /* \"#utility.yul\":2345:2349   */\n      0x00\n        /* \"#utility.yul\":2377:2381   */\n      0x20\n        /* \"#utility.yul\":2372:2375   */\n      dup3\n        /* \"#utility.yul\":2368:2382   */\n      add\n        /* \"#utility.yul\":2360:2382   */\n      swap1\n      pop\n        /* \"#utility.yul\":2276:2388   */\n      swap2\n      swap1\n      pop\n      jump\t// out\n        /* \"#utility.yul\":2428:3128   */\n    tag_42:\n        /* \"#utility.yul\":2566:2619   */\n      tag_73\n        /* \"#utility.yul\":2613:2618   */\n      dup2\n        /* \"#utility.yul\":2566:2619   */\n      tag_34\n      jump\t// in\n    tag_73:\n        /* \"#utility.yul\":2635:2720   */\n      tag_74\n        /* \"#utility.yul\":2713:2719   */\n      dup2\n        /* \"#utility.yul\":2708:2711   */\n      dup5\n        /* \"#utility.yul\":2635:2720   */\n      tag_35\n      jump\t// in\n    tag_74:\n        /* \"#utility.yul\":2628:2720   */\n      swap3\n      pop\n        /* \"#utility.yul\":2744:2799   */\n      tag_75\n        /* \"#utility.yul\":2793:2798   */\n      dup3\n        /* \"#utility.yul\":2744:2799   */\n      tag_36\n      jump\t// in\n    tag_75:\n        /* \"#utility.yul\":2822:2829   */\n      dup1\n        /* \"#utility.yul\":2853:2854   */\n      0x00\n        /* \"#utility.yul\":2838:3121   */\n    tag_76:\n        /* \"#utility.yul\":2863:2869   */\n      dup4\n        /* \"#utility.yul\":2860:2861   */\n      dup2\n        /* \"#utility.yul\":2857:2870   */\n      lt\n        /* \"#utility.yul\":2838:3121   */\n      iszero\n      tag_78\n      jumpi\n        /* \"#utility.yul\":2939:2945   */\n      dup2\n        /* \"#utility.yul\":2933:2946   */\n      mload\n        /* \"#utility.yul\":2966:3029   */\n      tag_79\n        /* \"#utility.yul\":3025:3028   */\n      dup8\n        /* \"#utility.yul\":3010:3023   */\n      dup3\n        /* \"#utility.yul\":2966:3029   */\n      tag_40\n      jump\t// in\n    tag_79:\n        /* \"#utility.yul\":2959:3029   */\n      swap7\n      pop\n        /* \"#utility.yul\":3052:3111   */\n      tag_80\n        /* \"#utility.yul\":3104:3110   */\n      dup4\n        /* \"#utility.yul\":3052:3111   */\n      tag_41\n      jump\t// in\n    tag_80:\n        /* \"#utility.yul\":3042:3111   */\n      swap3\n      pop\n        /* \"#utility.yul\":2898:3121   */\n      pop\n        /* \"#utility.yul\":2885:2886   */\n      0x01\n        /* \"#utility.yul\":2882:2883   */\n      dup2\n        /* \"#utility.yul\":2878:2887   */\n      add\n        /* \"#utility.yul\":2873:2887   */\n      swap1\n      pop\n        /* \"#utility.yul\":2838:3121   */\n      jump(tag_76)\n    tag_78:\n        /* \"#utility.yul\":2842:2856   */\n      pop\n        /* \"#utility.yul\":2542:3128   */\n      pop\n      pop\n      pop\n        /* \"#utility.yul\":2428:3128   */\n      pop\n      pop\n      jump\t// out\n        /* \"#utility.yul\":3134:3453   */\n    tag_14:\n        /* \"#utility.yul\":3275:3279   */\n      0x00\n        /* \"#utility.yul\":3313:3316   */\n      0x0200\n        /* \"#utility.yul\":3302:3311   */\n      dup3\n        /* \"#utility.yul\":3298:3317   */\n      add\n        /* \"#utility.yul\":3290:3317   */\n      swap1\n      pop\n        /* \"#utility.yul\":3327:3446   */\n      tag_82\n        /* \"#utility.yul\":3443:3444   */\n      0x00\n        /* \"#utility.yul\":3432:3441   */\n      dup4\n        /* \"#utility.yul\":3428:3445   */\n      add\n        /* \"#utility.yul\":3419:3425   */\n      dup5\n        /* \"#utility.yul\":3327:3446   */\n      tag_42\n      jump\t// in\n    tag_82:\n        /* \"#utility.yul\":3134:3453   */\n      swap3\n      swap2\n      pop\n      pop\n      jump\t// out\n        /* \"#utility.yul\":3459:3639   */\n    tag_20:\n        /* \"#utility.yul\":3507:3584   */\n      0x4e487b7100000000000000000000000000000000000000000000000000000000\n        /* \"#utility.yul\":3504:3505   */\n      0x00\n        /* \"#utility.yul\":3497:3585   */\n      mstore\n        /* \"#utility.yul\":3604:3608   */\n      0x32\n        /* \"#utility.yul\":3601:3602   */\n      0x04\n        /* \"#utility.yul\":3594:3609   */\n      mstore\n        /* \"#utility.yul\":3628:3632   */\n      0x24\n        /* \"#utility.yul\":3625:3626   */\n      0x00\n        /* \"#utility.yul\":3618:3633   */\n      revert\n\n    auxdata: 0xa264697066735822122031ab39067a01f6f356172420a7f048b260a8c5e9dd70c37600ecb1c5819238f864736f6c63430008160033\n}\n",
				"bytecode": {
					"linkReferences": {},
					"object": "608060405234801561001057600080fd5b50610395806100206000396000f3fe608060405234801561001057600080fd5b50600436106100365760003560e01c80639697f8ab1461003b578063a04fa0491461006b575b600080fd5b610055600480360381019061005091906101e0565b610089565b604051610062919061021c565b60405180910390f35b610073610101565b6040516100809190610314565b60405180910390f35b600080821015801561009c5750600f8211155b6100a557600080fd5b33600083601081106100ba576100b9610330565b5b0160006101000a81548173ffffffffffffffffffffffffffffffffffffffff021916908373ffffffffffffffffffffffffffffffffffffffff160217905550819050919050565b610109610182565b6000601080602002604051908101604052809291908260108015610178576020028201915b8160009054906101000a900473ffffffffffffffffffffffffffffffffffffffff1673ffffffffffffffffffffffffffffffffffffffff168152602001906001019080831161012e575b5050505050905090565b604051806102000160405280601090602082028036833780820191505090505090565b600080fd5b6000819050919050565b6101bd816101aa565b81146101c857600080fd5b50565b6000813590506101da816101b4565b92915050565b6000602082840312156101f6576101f56101a5565b5b6000610204848285016101cb565b91505092915050565b610216816101aa565b82525050565b6000602082019050610231600083018461020d565b92915050565b600060109050919050565b600081905092915050565b6000819050919050565b600073ffffffffffffffffffffffffffffffffffffffff82169050919050565b600061028282610257565b9050919050565b61029281610277565b82525050565b60006102a48383610289565b60208301905092915050565b6000602082019050919050565b6102c681610237565b6102d08184610242565b92506102db8261024d565b8060005b8381101561030c5781516102f38782610298565b96506102fe836102b0565b9250506001810190506102df565b505050505050565b60006102008201905061032a60008301846102bd565b92915050565b7f4e487b7100000000000000000000000000000000000000000000000000000000600052603260045260246000fdfea264697066735822122031ab39067a01f6f356172420a7f048b260a8c5e9dd70c37600ecb1c5819238f864736f6c63430008160033",
					"opcodes": "PUSH1 0x80 PUSH1 0x40 MSTORE CALLVALUE DUP1 ISZERO PUSH2 0x10 JUMPI PUSH1 0x0 DUP1 REVERT JUMPDEST POP PUSH2 0x395 DUP1 PUSH2 0x20 PUSH1 0x0 CODECOPY PUSH1 0x0 RETURN INVALID PUSH1 0x80 PUSH1 0x40 MSTORE CALLVALUE DUP1 ISZERO PUSH2 0x10 JUMPI PUSH1 0x0 DUP1 REVERT JUMPDEST POP PUSH1 0x4 CALLDATASIZE LT PUSH2 0x36 JUMPI PUSH1 0x0 CALLDATALOAD PUSH1 0xE0 SHR DUP1 PUSH4 0x9697F8AB EQ PUSH2 0x3B JUMPI DUP1 PUSH4 0xA04FA049 EQ PUSH2 0x6B JUMPI JUMPDEST PUSH1 0x0 DUP1 REVERT JUMPDEST PUSH2 0x55 PUSH1 0x4 DUP1 CALLDATASIZE SUB DUP2 ADD SWAP1 PUSH2 0x50 SWAP2 SWAP1 PUSH2 0x1E0 JUMP JUMPDEST PUSH2 0x89 JUMP JUMPDEST PUSH1 0x40 MLOAD PUSH2 0x62 SWAP2 SWAP1 PUSH2 0x21C JUMP JUMPDEST PUSH1 0x40 MLOAD DUP1 SWAP2 SUB SWAP1 RETURN JUMPDEST PUSH2 0x73 PUSH2 0x101 JUMP JUMPDEST PUSH1 0x40 MLOAD PUSH2 0x80 SWAP2 SWAP1 PUSH2 0x314 JUMP JUMPDEST PUSH1 0x40 MLOAD DUP1 SWAP2 SUB SWAP1 RETURN JUMPDEST PUSH1 0x0 DUP1 DUP3 LT ISZERO DUP1 ISZERO PUSH2 0x9C JUMPI POP PUSH1 0xF DUP3 GT ISZERO JUMPDEST PUSH2 0xA5 JUMPI PUSH1 0x0 DUP1 REVERT JUMPDEST CALLER PUSH1 0x0 DUP4 PUSH1 0x10 DUP2 LT PUSH2 0xBA JUMPI PUSH2 0xB9 PUSH2 0x330 JUMP JUMPDEST JUMPDEST ADD PUSH1 0x0 PUSH2 0x100 EXP DUP2 SLOAD DUP2 PUSH20 0xFFFFFFFFFFFFFFFFFFFFFFFFFFFFFFFFFFFFFFFF MUL NOT AND SWAP1 DUP4 PUSH20 0xFFFFFFFFFFFFFFFFFFFFFFFFFFFFFFFFFFFFFFFF AND MUL OR SWAP1 SSTORE POP DUP2 SWAP1 POP SWAP2 SWAP1 POP JUMP JUMPDEST PUSH2 0x109 PUSH2 0x182 JUMP JUMPDEST PUSH1 0x0 PUSH1 0x10 DUP1 PUSH1 0x20 MUL PUSH1 0x40 MLOAD SWAP1 DUP2 ADD PUSH1 0x40 MSTORE DUP1 SWAP3 SWAP2 SWAP1 DUP3 PUSH1 0x10 DUP1 ISZERO PUSH2 0x178 JUMPI PUSH1 0x20 MUL DUP3 ADD SWAP2 JUMPDEST DUP2 PUSH1 0x0 SWAP1 SLOAD SWAP1 PUSH2 0x100 EXP SWAP1 DIV PUSH20 0xFFFFFFFFFFFFFFFFFFFFFFFFFFFFFFFFFFFFFFFF AND PUSH20 0xFFFFFFFFFFFFFFFFFFFFFFFFFFFFFFFFFFFFFFFF AND DUP2 MSTORE PUSH1 0x20 ADD SWAP1 PUSH1 0x1 ADD SWAP1 DUP1 DUP4 GT PUSH2 0x12E JUMPI JUMPDEST POP POP POP POP POP SWAP1 POP SWAP1 JUMP JUMPDEST PUSH1 0x40 MLOAD DUP1 PUSH2 0x200 ADD PUSH1 0x40 MSTORE DUP1 PUSH1 0x10 SWAP1 PUSH1 0x20 DUP3 MUL DUP1 CALLDATASIZE DUP4 CALLDATACOPY DUP1 DUP3 ADD SWAP2 POP POP SWAP1 POP POP SWAP1 JUMP JUMPDEST PUSH1 0x0 DUP1 REVERT JUMPDEST PUSH1 0x0 DUP2 SWAP1 POP SWAP2 SWAP1 POP JUMP JUMPDEST PUSH2 0x1BD DUP2 PUSH2 0x1AA JUMP JUMPDEST DUP2 EQ PUSH2 0x1C8 JUMPI PUSH1 0x0 DUP1 REVERT JUMPDEST POP JUMP JUMPDEST PUSH1 0x0 DUP2 CALLDATALOAD SWAP1 POP PUSH2 0x1DA DUP2 PUSH2 0x1B4 JUMP JUMPDEST SWAP3 SWAP2 POP POP JUMP JUMPDEST PUSH1 0x0 PUSH1 0x20 DUP3 DUP5 SUB SLT ISZERO PUSH2 0x1F6 JUMPI PUSH2 0x1F5 PUSH2 0x1A5 JUMP JUMPDEST JUMPDEST PUSH1 0x0 PUSH2 0x204 DUP5 DUP3 DUP6 ADD PUSH2 0x1CB JUMP JUMPDEST SWAP2 POP POP SWAP3 SWAP2 POP POP JUMP JUMPDEST PUSH2 0x216 DUP2 PUSH2 0x1AA JUMP JUMPDEST DUP3 MSTORE POP POP JUMP JUMPDEST PUSH1 0x0 PUSH1 0x20 DUP3 ADD SWAP1 POP PUSH2 0x231 PUSH1 0x0 DUP4 ADD DUP5 PUSH2 0x20D JUMP JUMPDEST SWAP3 SWAP2 POP POP JUMP JUMPDEST PUSH1 0x0 PUSH1 0x10 SWAP1 POP SWAP2 SWAP1 POP JUMP JUMPDEST PUSH1 0x0 DUP2 SWAP1 POP SWAP3 SWAP2 POP POP JUMP JUMPDEST PUSH1 0x0 DUP2 SWAP1 POP SWAP2 SWAP1 POP JUMP JUMPDEST PUSH1 0x0 PUSH20 0xFFFFFFFFFFFFFFFFFFFFFFFFFFFFFFFFFFFFFFFF DUP3 AND SWAP1 POP SWAP2 SWAP1 POP JUMP JUMPDEST PUSH1 0x0 PUSH2 0x282 DUP3 PUSH2 0x257 JUMP JUMPDEST SWAP1 POP SWAP2 SWAP1 POP JUMP JUMPDEST PUSH2 0x292 DUP2 PUSH2 0x277 JUMP JUMPDEST DUP3 MSTORE POP POP JUMP JUMPDEST PUSH1 0x0 PUSH2 0x2A4 DUP4 DUP4 PUSH2 0x289 JUMP JUMPDEST PUSH1 0x20 DUP4 ADD SWAP1 POP SWAP3 SWAP2 POP POP JUMP JUMPDEST PUSH1 0x0 PUSH1 0x20 DUP3 ADD SWAP1 POP SWAP2 SWAP1 POP JUMP JUMPDEST PUSH2 0x2C6 DUP2 PUSH2 0x237 JUMP JUMPDEST PUSH2 0x2D0 DUP2 DUP5 PUSH2 0x242 JUMP JUMPDEST SWAP3 POP PUSH2 0x2DB DUP3 PUSH2 0x24D JUMP JUMPDEST DUP1 PUSH1 0x0 JUMPDEST DUP4 DUP2 LT ISZERO PUSH2 0x30C JUMPI DUP2 MLOAD PUSH2 0x2F3 DUP8 DUP3 PUSH2 0x298 JUMP JUMPDEST SWAP7 POP PUSH2 0x2FE DUP4 PUSH2 0x2B0 JUMP JUMPDEST SWAP3 POP POP PUSH1 0x1 DUP2 ADD SWAP1 POP PUSH2 0x2DF JUMP JUMPDEST POP POP POP POP POP POP JUMP JUMPDEST PUSH1 0x0 PUSH2 0x200 DUP3 ADD SWAP1 POP PUSH2 0x32A PUSH1 0x0 DUP4 ADD DUP5 PUSH2 0x2BD JUMP JUMPDEST SWAP3 SWAP2 POP POP JUMP JUMPDEST PUSH32 0x4E487B7100000000000000000000000000000000000000000000000000000000 PUSH1 0x0 MSTORE PUSH1 0x32 PUSH1 0x4 MSTORE PUSH1 0x24 PUSH1 0x0 REVERT INVALID LOG2 PUSH5 0x6970667358 0x22 SLT KECCAK256 BALANCE 0xAB CODECOPY MOD PUSH27 0x1F6F356172420A7F048B260A8C5E9DD70C37600ECB1C5819238F8 PUSH5 0x736F6C6343 STOP ADDMOD AND STOP CALLER "
				},
				"gasEstimates": {
					"creation": {
						"codeDepositCost": "183400",
						"executionCost": "226",
						"totalCost": "183626"
					},
					"external": {
						"getTeamPlayers()": "infinite",
						"selectJerseyNumber(uint256)": "infinite"
					}
				},
				"methodIdentifiers": {
					"getTeamPlayers()": "a04fa049",
					"selectJerseyNumber(uint256)": "9697f8ab"
				}
			},
			"storageLayout": {
				"storage": [
					{
						"astId": 5,
						"contract": "nathaniel/team.sol:Team",
						"label": "team",
						"offset": 0,
						"slot": "0",
						"type": "t_array(t_address)16_storage"
					}
				],
				"types": {
					"t_address": {
						"encoding": "inplace",
						"label": "address",
						"numberOfBytes": "20"
					},
					"t_array(t_address)16_storage": {
						"base": "t_address",
						"encoding": "inplace",
						"label": "address[16]",
						"numberOfBytes": "512"
					}
				}
			},
			"userdoc": {
				"kind": "user",
				"methods": {},
				"version": 1
			}
		}
	}
}